:020000040800F2
:10000000989E0020CD210008A11F0008A31F000812
:10001000A71F0008AB1F0008AF1F0008000000006A
:10002000000000000000000000000000B31F0008F6
:10003000B51F000800000000B71F0008B91F000826
:10004000E7210008E7210008E7210008E721000870
:10005000E7210008E7210008E7210008E721000860
:10006000E7210008E7210008E7210008E721000850
:10007000E7210008E72100081D5C00084F5D00082B
:10008000E72100083B5A0008E7210008E7210008A3
:10009000E7210008E7210008E7210008E721000820
:1000A000E7210008E7210008E7210008E721000810
:1000B000077C00088B8300082D850008E7210008D5
:1000C000E7210008E7210008E7210008E7210008F0
:1000D000E7210008E7210008C3570008535B000828
:1000E000697D0008E7210008E7210008E7210008F2
:1000F000E7210008E7210008E7210008E7210008C0
:10010000E7210008097A0008E7210008E721000834
:10011000355D0008E7210008E7210008E721000815
:10012000E7210008E7210008E7210008E72100088F
:10013000E7210008E7210008E7210008E72100087F
:10014000E7210008E7210008E7210008E72100086F
:10015000DF590008435F0008135A00086D5E00086D
:10016000E7210008E7210008E7210008E72100084F
:10017000E7210008E7210008E7210008E72100083F
:10018000E7210008E721000800F002F800F06FF80E
:100190000AA090E8000C82448344AAF10107DA45E2
:1001A00001D100F064F8AFF2090EBAE80F0013F0C5
:1001B000010F18BFFB1A43F001031847E486030040
:1001C000048703000A444FF0000C10F8013B13F0C1
:1001D000070408BF10F8014B1D1108BF10F8015BA0
:1001E000641E05D010F8016B641E01F8016BF9D193
:1001F00013F0080F1EBF10F8014BAD1C0C1B09D1EA
:100200006D1E58BF01F801CBFAD505E014F8016B5B
:1002100001F8016B6D1EF9D59142D6D370470000ED
:100220000023002400250026103A28BF78C1FBD8FF
:10023000520728BF30C148BF0B60704766290DF0D8
:10024000238464290BF08C8478290BF0C58400206A
:1002500070471FB50DF013FC0CF064F9040000208A
:1002600000210CF0B9FEE0601FBD10B510BD0CF010
:100270005DFA1146FFF7EDFF01F081FD0CF07BFA0E
:1002800003B4FFF7F2FF03BC05F050F81CB50121E1
:10029000082002F04FFB0121022002F04BFB01215C
:1002A000102002F047FB0121084602F043FB4FF407
:1002B0000040009000208DF8040003208DF8050018
:1002C00001208DF807006946FE4802F095F841F2DA
:1002D0001C00009001208DF804008DF8060003201A
:1002E0008DF8050001208DF807006946F64802F0F8
:1002F00083F84FF40060009001208DF80400002086
:100300008DF8060003208DF8050001208DF8070008
:100310006946EC4802F070F84FF40061E94802F0D9
:10032000E9F84020009001208DF8040000208DF8AD
:10033000060003208DF8050001208DF807006946AE
:10034000E24802F059F84021E04802F0D3F81020CA
:10035000009001208DF804008DF8060003208DF830
:10036000050001208DF807006946D64802F044F8E0
:100370004FF44050009001208DF804008DF80600E5
:1003800003208DF8050001208DF807006946D0484C
:1003900002F032F80120CF4908604FF4704000901D
:1003A00001208DF8040000208DF8060003208DF850
:1003B000050001208DF807006946C44802F01CF8CA
:1003C00044F23800009001208DF8040000208DF8E0
:1003D000060003208DF8050001208DF8070069460E
:1003E000BB4802F009F847F20300009001208DF8A5
:1003F000040003208DF8050001208DF807006946F0
:10040000B14801F0F9FF4FF4C041AF4802F070F875
:100410000321AD4802F06EF80C20009000208DF80A
:10042000040003208DF8050001208DF807006946BF
:10043000A54801F0E1FF1CBD10B500BFA64800783B
:100440000128FBD10020A44908700121A34802F033
:1004500017FF10BD10B500BFA14800780128FBD1DF
:1004600000209F49087001219E4802F009FF10BD3D
:1004700010B5044600BF9A4800780128FBD100213E
:10048000984802F0FDFE00BF964802F046FF0028A3
:10049000FAD19448001D04600020914908700121A0
:1004A000904802F0EDFE10BD10B500BF8E480078F8
:1004B0000128FBD100208C49087001218948483867
:1004C00002F0DEFE10BD10B500BF8848007801289C
:1004D000FBD100208549087001218248303802F0A4
:1004E000CFFE10BD10B5044600BF8048007801283B
:1004F000FBD100217B48303802F0C2FE00BF7948B2
:10050000303802F00AFF0028F9D17648A038446755
:1005100000207649087001217248303802F0B0FEA0
:1005200010BD10B500BF724800780128FBD1002033
:100530006F49087001216948183802F0A1FE10BD0A
:1005400010B5044600BF6A4800780128FBD100219D
:100550006248183802F094FE00BF6048183802F074
:10056000DCFE0028F9D15D481438046000206049A1
:10057000087001215948183802F082FE10BD2DE99B
:10058000FC4707460C4615460020009080468146F1
:1005900001AA694638460AF047F806468EB901981E
:1005A0004069801E0199897800FB01F901988078E3
:1005B000009900FB01F84FEA590020604FEA58000B
:1005C00028603046BDE8FC877CB500250024002665
:1005D00012E04FF4FA7004F053FC4648006808B982
:1005E000012000E0002043490860FF25601CC4B2E0
:1005F000022C01DD28467CBD06F027FA0028E8D150
:1006000001223DA13D4809F015FB064616B1FF2524
:100610002846F0E76A4601A939A0FFF7B0FF48B9BC
:100620000098800A00900098B0F5006F02D2022571
:100630002846E0E72846DEE730B5A1B00025802156
:1006400001A80BF034FC002413222EA1314809F03C
:100650001CFB054615B1601E21B030BD2D4A80211E
:1006600001A80AF024FF40B92A492B480AF08AFF62
:10067000284809F0EEFD0120EEE700BF254A802161
:1006800001A80AF014FF0028F8D19DF804004628BC
:100690006AD09DF80400302806DD9DF8040030384B
:1006A00042F2107110FB01F49DF80500302808DDBE
:1006B0009DF80500303800EB4001C1EBC01004EBA1
:1006C000C0042BE00000024000100240000C024079
:1006D0000004024090024042080E0020B86402402C
:1006E000090E0020A06002400A0E00200B0E002020
:1006F0000C0E0020A4824242303A0000800E0020FE
:1007000030000000303A2F636F6E6669672E747890
:1007100074000000B01000205C8803089DF80600FB
:10072000302808DD9DF80600303800EBC00101EBF1
:10073000001004EB80049DF80700302806DD9DF8CA
:100740000700303800EB800004EB40049DF80800FF
:10075000302804DD9DF808002044A0F13004FE4854
:1007600009F077FD601C77E7FB4809F072FD012076
:1007700072E7F0B52DED068B8BB00025002642F216
:10078000CF010A2007F012FA00240FE004F00F0056
:100790000A2805D204F00F003030F049085504E073
:1007A00004F00F003730ED490855641C252CEDD3BB
:1007B00000BFFFF741FF0546002D7CDD0222AFF2AE
:1007C000BC01E54809F061FA2A46E5A103A80BF04F
:1007D0008BF9E148C16809F04EFDE34B072203A9FC
:1007E000DD4809F0E9FBDC4809F033FD2A46DFA1CA
:1007F00003A80BF079F9122203A9D74809F045FAAA
:100800000646052004F03CFB002E59D157E001219B
:10081000D94802F063FF00240AE0CF48C16809F01C
:100820002AFDD14B2522CD49CB4809F0C5FB641CDC
:10083000B4F5007FF1D30021CF4802F04FFF002133
:10084000CD4802F00BFFCD4890ED000AB8EE400A0B
:10085000DFEDCB0A80EE801A11EE107A38460DF0EB
:100860009DF841EC180BC54890ED000AB8EE400A1F
:1008700010EE100A0DF092F841EC1A0B9FEDC10B2F
:1008800053EC102B0CF072FC41EC190B8DED008B2E
:1008900053EC192BBDA1C2480BF026F9FFF7DAFD86
:1008A000012240F22551BF4802F089FB0020B349E4
:1008B0000860A94800E003E009F0CBFC79E7A6E76F
:1008C0000BB0BDEC068BF0BD30B5A1B0002580218A
:1008D00001A80BF0ECFA0024FFF7AEFE0446002C52
:1008E00029DD0222AFF2E4119B4809F0CEF922463D
:1008F0009BA101A80BF0F8F89748C16809F0BBFC70
:10090000954901A80AF03EFE934809F0A2FC224650
:1009100096A101A80BF0E8F8122201A98E4809F06F
:10092000B4F905461DB901209F49087006E04FF053
:10093000FF3021B030BD6FF00A00FAE70020F8E781
:1009400010B59A48007801280DD100209749087009
:100950008148C16809F08FFC834B25227F497E487E
:1009600009F02AFB10E09148007802280CD1002001
:100970008E4908707848C16809F07DFC7A4B2522C1
:100980008B49754809F018FB10BD10B5724809F085
:1009900060FC04460020844908700CB1401E10BD64
:1009A0000020FCE770B52DED0A8B9FED820BB0EEB9
:1009B000408AF0EE608A7148006880490968401AF0
:1009C00001287CD96D4800687C4908603F22634952
:1009D0007B480BF0F5F97A49C97B794A127C41EAE8
:1009E00002200CF04AFD41EC1B0B9FED760B53EC03
:1009F000102B0CF0A9FD41EC1A0B9FED740B53EC7E
:100A0000102B0CF0B3FB41EC190B9FED720B53EC68
:100A1000102B0CF0D9FE714A03C26948C07B38B96B
:100A20006748007C20B99FED6E0B6C4880ED000B91
:100A30006349C97D624A127E41EA0221604A527EC0
:100A400041EA02415E4A927E41EA02615C4AD27802
:100A50005B4B1B7942EA0322594B5B7942EA034222
:100A6000574B9B7942EA0362881A0CF006FD41EC71
:100A7000190B9FED5D0B53EC102B0CF065FD5C4AE0
:100A800003C24F48C0794E49097A40EA012404F470
:100A90000040B0F5004F0FD1C4F30E00C443C4F3BF
:100AA0000E00441C53EC182B9FED520B51EC100B15
:100AB0000CF04AFD41EC180B4148007B00E08BE153
:100AC00000F007004D49088020460CF0D6FC41ECB0
:100AD0001C0B53EC182B0CF037FD41EC1A0B47495B
:100AE0000988012202EB41000CF0C7FC41EC1C0B11
:100AF0009FED430B53EC102B0CF026FD41EC1B0B30
:100B000053EC1A2B0CF07EFA41EC190B9FED3E0BC7
:100B100053EC102B0CF018FD3D4A03C22848C07955
:100B200038B92748007A20B99FED2D0B384880ED61
:100B3000000B2349497A224A927A41EA0221204A4B
:100B4000D27A41EA02400CF098FC41EC190B9FED7F
:100B5000260B53EC102B5DE0B0100020D4140020C5
:100B6000253035640D0A000000000020303A2F25A2
:100B70003035642E64617400000400403C0E002097
:100B80000000FA450000000000408F40252E33662B
:100B90002F73202C20252E3266204D422F730A0001
:100BA000C80400200044004004000020260E00205D
:100BB000FC14002077CF049E32DE783F400E0020E8
:100BC000C80C00209A999999997F7F4000000000F5
:100BD0000000B040666666666612714088000020BC
:100BE00000000000000000009A9999999999094025
:100BF00068000020000000000000F0BF600000203E
:100C00000000000000885340000000000000304059
:100C1000580000200CF098FCFE4A03C2DD20FE497B
:100C2000087077204870FD480088C0F3470088703E
:100C3000FA480068C0F34720C87000200871F848DF
:100C400000784871F748007888710020C8710872F0
:100C50004872F548407B8872F348807BC872F3483D
:100C600090ED000B51EC100B0CF0D8FB0546EA4957
:100C70000D73ED48807C10B9042048730EE0EA48FB
:100C8000807C012803D10820E349487306E0E64848
:100C9000807C022802D10C20DF494873DE48407B6B
:100CA000E149497DC943C1F381110843DA494873D9
:100CB000DF4890ED000B51EC100B0CF0AFFBDD4961
:100CC0000880084600880CF0EFFB41EC1A0BD8486E
:100CD00090ED000B53EC102B51EC1A0B0CF068FD4F
:100CE00041EC190B9FEDD40B53EC102B0CF02AFDAB
:100CF00004D8D0480088401CCE490880CD480078F0
:100D0000C5498873CB4800880012C8739FEDCC0B8F
:100D100053EC102BCC4890ED000B51EC100B0CF069
:100D200025FA41EC190B0CF079FBC84908800846FC
:100D30000078B9490874C5480088001248749FEDCE
:100D4000C00B53EC102BB34890ED000B51EC100B83
:100D50000CF00CFA41EC190B0CF060FBBC4908805C
:100D600008460078AC498874B94800880012C874F5
:100D7000AD48407C0875AC48407D00F01F004876C7
:100D8000A948007D8876A848C07CC8760020B14973
:100D90000870B14908800DE09F48AF490988405C60
:100DA000AC4909780844AB490870AB480088401C3E
:100DB000A9490880A84800881D28EDDBA5480078CF
:100DC000954948771E22A5480AF0FAFF1E20FFF732
:100DD00089FB1E20FFF74CFBBDEC0A8B70BD10B5E4
:100DE0004FF400419E4801F069FB002850D19D4816
:100DF000007800284CD101209A490870C1039A4814
:100E000001F076FB9948007840F01000974908708F
:100E100040F6B83004F034F84FF48051924801F0B5
:100E200067FB4FF40051904801F062FBC82004F0CA
:100E300027F84FF480518E4801F05AFB8B48007818
:100E400040F00800894908704FF48041864801F05D
:100E50004FFB8648007840F020008449087008461F
:100E6000007840F0800008704FF4FA7004F008F841
:100E700037228049804807F08DF846227D497F4817
:100E80000AF09EFFFFF7D8FA01217D4803F017F81A
:100E900010BD70B500247B480078462875D100202D
:100EA000784908707848006808B9012000E00020FF
:100EB0007549086075488078CE2826D1002074498D
:100EC000087072488079487000208870C8700122CC
:100ED000704806F0E0FF00206D49487001226D481F
:100EE00007F058F86A48407868498979884204D1FF
:100EF000664880794B49087002E001204949087032
:100F00000121654801F0A5FF70BD604800794549A1
:100F10000978884204D001215F4801F09AFFF3E785
:100F20005A488078CD2811D185205C49087011205D
:100F300048705648807988705448C079C870FFF767
:100F4000B3FA0121544801F084FFDDE74F484079AE
:100F5000334908704D484079432857D01BDC1B2883
:100F60003AD00ADCA0F110000A2850D2DFE800F0E5
:100F70002E2F4F304F314F324F3333282FD005DCD7
:100F80001D282AD01F2842D128E04AE335283FD027
:100F90004128F8D1C9E04F283BD00ADCA0F1450038
:100FA0000928E2D2DFE800F0FD33FC33FB33FA33EB
:100FB000F900572876D004DC532874D05528E2D1A4
:100FC000C5E2612870D06328DDD122E323E322E368
:100FD00021E320E31FE31EE31DE31CE31BE30020EA
:100FE0002F4908604FF480511F4801F081FA4FF4F7
:100FF000FA6003F045FF4FF480411B4801F078FA96
:101000001A48007840F0200018494EE0CFE001E394
:1010100078E034E278000020C8040020480E002068
:101020005100002008000020C80C0020880000208B
:101030005800002060000020000000000000E03F99
:1010400000000000000049406800002070000020FF
:10105000800000202400002022000020C400002086
:101060000000024093000020000C024020000020FD
:1010700000100240F813002000000E082C0D002084
:1010800000000140200E0020B082404224150020C4
:101090000900002000FC0D0800440040C0000020B2
:1010A0009002404286E251E2B2E208704FF4FA60E8
:1010B00003F0E6FE4FF40041FE4801F019FAFE4845
:1010C000007840F01000FC4908704FF4FA6003F01B
:1010D000D7FE4FF40051F74801F00AFAC82003F098
:1010E000CFFE4FF48051F54801F002FAF248007843
:1010F00040F00800F04908700846007840F0800091
:10110000087088E20120EE4908604103E94801F0D7
:10111000F1F94FF48051E94801F0ECF9E648007824
:1011200000F00800E449087075E23722E549E64816
:1011300006F030FFDC22E349E4480AF041FEFFF705
:101140007BF9322003F09CFE3722DE49DE48DC309A
:1011500006F020FFDC22DB49DC480AF031FEFFF715
:101160006BF9322003F08CFE3722D649D84806F0BE
:1011700011FFDC22D349D5480AF022FEFFF75CF9C3
:10118000322003F07DFE3722CE49D148DC3006F014
:1011900001FFDC22CB49CD4804E034E1F7E0BAE0BE
:1011A0007DE040E00AF00CFEFFF746F933E237221B
:1011B000C449C84806F0EEFEDC22C249C3480AF022
:1011C000FFFDFFF739F9322003F05AFE3722BD49FF
:1011D000C048DC3006F0DEFEDC22BA49BB480AF02B
:1011E000EFFDFFF729F9322003F04AFE3722B54917
:1011F000B94806F0CFFEDC22B249B4480AF0E0FD5F
:10120000FFF71AF9322003F03BFE3722AD49B2480E
:10121000DC3006F0BFFEDC22AA49AC480AF0D0FD63
:10122000FFF70AF9F7E13722A649AC4806F0B2FE0B
:10123000DC22A449A5480AF0C3FDFFF7FDF83220DF
:1012400003F01EFE37229F49A448DC3006F0A2FEC0
:10125000DC229C499D480AF0B3FDFFF7EDF83220EF
:1012600003F00EFE372297499D4806F093FEDC22DC
:10127000944996480AF0A4FDFFF7DEF8322003F007
:10128000FFFD37228F499648DC3006F083FEDC22D2
:101290008C498E480AF094FDFFF7CEF8BBE1372267
:1012A0008849904806F076FEDC22864987480AF095
:1012B00087FDFFF7C1F8322003F0E2FD37228149B4
:1012C0008848DC3006F066FEDC227E497F480AF062
:1012D00077FDFFF7B1F8322003F0D2FD37227949CC
:1012E000814806F057FEDC22764978480AF068FD0E
:1012F000FFF7A2F8322003F0C3FD372271497A4884
:10130000DC3006F047FEDC226E4970480AF058FDDA
:10131000FFF792F87FE137226A49744806F03AFEF7
:10132000DC22684969480AF04BFDFFF785F8322056
:1013300003F0A6FD372263496C48DC3006F02AFE34
:10134000DC22604961480AF03BFDFFF775F8322066
:1013500003F096FD37225B49654806F01BFEDC2250
:1013600058495A480AF02CFDFFF766F8322003F07E
:1013700087FD372253495E48DC3006F00BFEDC2245
:10138000504952480AF01CFDFFF756F843E1372256
:101390004C49584806F0FEFDDC224A494B480AF009
:1013A0000FFDFFF749F8322003F06AFD3722454967
:1013B0005048DC3006F0EEFDDC22424943480AF09A
:1013C000FFFCFFF739F8322003F05AFD37223D4980
:1013D000494806F0DFFDDC223A493C480AF0F0FCBF
:1013E000FFF72AF8322003F04BFD372235494248F7
:1013F000DC3006F0CFFDDC22324934480AF0E0FC54
:10140000FFF71AF807E137222E493C4806F0C2FDE3
:10141000DC222C492D480AF0D3FCFFF70DF83220CE
:1014200003F02EFD372227493448DC3006F0B2FDA8
:10143000DC22244925480AF0C3FCFEF7FDFF3220D8
:1014400003F01EFD37221F492D4806F0A3FDDC22C4
:101450001C491E480AF0B4FCFEF7EEFF322003F0F0
:101460000FFD372217492648DC3006F093FDDC22B9
:10147000144916480AF0A4FCFEF7DEFFCBE0372241
:101480001049204806F086FDDC220E490F480AF07C
:1014900097FCFEF7D1FF322003F0F2FC3722094916
:1014A0001848DC3006F076FDDC22064907480AF0D1
:1014B00087FC29E0000C02402000002000100240C0
:1014C00090024042F813002000000E082C0D00206E
:1014D000B8010E08E8030E08A0050E08D0070E0894
:1014E00088090E08B80B0E08700D0E08A00F0E0824
:1014F00058110E0888130E0840150E0870170E08B4
:1015000028190E08581B0E08FEF796FF322003F02C
:10151000B7FC3722FD49FE4806F03CFDDC22FB49C2
:10152000FC480AF04DFCFEF787FF322003F0A8FCD0
:101530003722F649F648DC3006F02CFDDC22F34970
:10154000F4480AF03DFCFEF777FF64E063E0012019
:10155000F14908604103F14800F0CCFF4FF480519D
:10156000EF4800F0C7FFEF48007800F00800ED49B1
:1015700008704FF48041E94800F0BCFFE94800786A
:1015800000F0DF00E74908704FF40041E34800F045
:10159000B1FFE448007800F0EF00E2490870084627
:1015A000007800F07F0008704FF48051DB4800F0B5
:1015B000A1FF30E03721DC4806F0B6FC3622D349E3
:1015C000D94806F0E7FC0020D8490870D8490880BF
:1015D0000EE0CE48D6490988405CFF2803D00120A0
:1015E000D249087008E0D2480088401CD0490880E1
:1015F000CF4800883728ECD300BFCC48007818B912
:101600005820CC49087002E05920CA49087002E00D
:1016100001E000E000BF00BF0121C74801F019FC54
:1016200092E0C648007850285DD1C54880780128EE
:101630003AD140F6C412C349BB4806F0ABFCC048DF
:10164000847A807A0A2800D10324BD49C9784FF4EE
:101650007A7211FB02F104EBC402C2EB841201EBBB
:101660008201B84A8818DC22B54908310AF0A8FB83
:1016700040F6C412B349AC4806F00DFC40F6C41263
:10168000B149A94806F086FC40F6C412AE49AD48FF
:101690000AF06AFBA8B1AD48006808B9012000E073
:1016A0000020AA4908600CE0DC22A54908319948CD
:1016B0000AF086FBEB209749087090204870FEF7EF
:1016C000BBFE00209D490870A048001F006808B9B3
:1016D000012000E000209D49091F08600121964873
:1016E00001F0B7FB30E09548007855282CD1002553
:1016F0000020924908704FF480629549954803F0A4
:1017000056FE9549088008460088002804DD0846F2
:10171000008803F019FE02E00020884908704FF4A9
:1017200080628E498E4803F042FE8E49088008464A
:101730000088002804DD08460088FEF701FF02E06B
:1017400000207E49087000BF8748007801287ED1BC
:10175000002500208449087084480078032812D1AD
:101760004FF480516D4800F0C3FE4FF480416B4848
:1017700000F0BEFE4FF40041684800F0B9FE7CA0C6
:101780000AF0A6F93BE079480078022811D1C1029D
:10179000624800F0ADFE4FF48041604800F0A8FEC2
:1017A0004FF400415D4800F0A3FE75A00AF090F9E7
:1017B00025E06E480078012807D1C103574800F0A2
:1017C00097FE73A00AF084F919E068480078B0B970
:1017D0004FF48051514800F08DFE4FF400514F48B6
:1017E00000F088FE4FF480414C4800F083FE4FF437
:1017F00000414A4800F07EFE69A00AF069F96C4891
:101800000078012817D10103444800F071FE4FF41D
:101810000051424800F06CFE4FF480413F4800F018
:1018200067FE4FF400413D4800F062FE61A00AF0FF
:101830004FF90BE00BE05E48007838B94FF40051E7
:10184000364800F057FE5FA00AF042F900BF614839
:10185000007857280AD100205E4908705E48008849
:10186000FEF706FE5C48008803F06EFD00BFFFF740
:101870004BBB10B52DED048B8021294800F03AFEBA
:101880004021274800F036FE2021254800F030FE98
:101890000221234800F02EFE0121214800F028FEFD
:1018A0004E48007840F001004C4908704FF4FA703F
:1018B00003F0E6FA4AA00AF00BF91021544800F0B0
:1018C000FDFD5449097841EA400052490870084634
:1018D000007800F0020018B14FA00AF0F9F802E019
:1018E00054A00AF0F5F802210D4800F001FE012194
:1018F0000B4800F0FFFD3948007840F002003749FE
:1019000008704FF4FA7003F0BBFAA1E0F81300205E
:10191000101D0E082C0D002090024042000C0240C9
:10192000001002402000002000000E0824000020CB
:10193000220000205100002000440040200E002022
:101940007021002070250020804C0020B48240428D
:10195000C400002090730020120E002044200020BC
:1019600098830020140E0020170E0020160E002071
:1019700076616C75653A307830330D0A00000000EE
:1019800076616C75653A307830320D0A00000000DF
:1019900076616C75653A307830310D0A00000000D0
:1019A00076616C75653A307830300D0A00000000C1
:1019B000180E002066617368656A693A30783031C4
:1019C0000D0A000066617368656A693A30783030E4
:1019D0000D0A0000270E0020100E00200D00002030
:1019E0000D0ACDA8B5C0B4F2BFAA2A2A2A2A2A2AEB
:1019F0002A2A2A2A2A2A2A2A2A2A2A2A2A2A2A2A47
:101A00002A2A2A2A2A2A2A2A2A2A2A0A00000000FE
:101A1000000402400E0000200D0A565431D5FDB3DB
:101A2000A32D2D2D2D2D2D2D2D2D2D2D2D2D2D2D70
:101A30002D2D0A000D0A565431D2ECB3A32D2D2DB5
:101A40002D2D2D2D2D2D2D2D2D2D2D2D2D2D0A0016
:101A50004021FB4800F032FDFA49097841EA800054
:101A6000F84908700846007800F0040018B1F6A0A4
:101A70000AF02EF802E0FBA00AF02AF832210D202D
:101A800006F07AFBFE490880084600880BF00CFD42
:101A900041EC190B9FEDFB0B53EC102B0BF054FD9D
:101AA00041EC180B9FEDF90B53EC102B0BF05EFB88
:101AB000F84A03C2F74890ED000B53EC102BF6A048
:101AC0000AF006F832210E2006F056FBEC49088099
:101AD000084600880BF0E8FC41EC190B9FEDE90B80
:101AE00053EC102B0BF030FD41EC180B9FEDE70B86
:101AF00053EC102B0BF03AFBE64A03C2E54890ED9D
:101B0000000B53EC102BE8A009F0E2FF0221EB4898
:101B100000F0EEFC0121E94800F0EAFCE84800781A
:101B200040F00400E64908704FF4FA7003F0A8F999
:101B300032210D2006F020FBD1490880084600889C
:101B40000BF0B2FC41EC190B9FEDCE0B53EC102BBC
:101B50000BF0FAFC41EC180B9FEDCC0B53EC102B67
:101B60000BF004FBCB4A03C2CA4890ED000B53ECC8
:101B7000102BC9A009F0ACFF32210F2006F0FCFAAF
:101B8000BF490880084600880BF08EFC41EC190B19
:101B90009FEDBC0B53EC102B0BF0D6FC41EC180B5B
:101BA0009FEDBA0B53EC102B0BF0E0FAB94A03C2CD
:101BB000B84890ED000B53EC102BC2A009F088FF41
:101BC0008021BE4800F094FC4021BC4800F090FC0D
:101BD0002021BA4800F08EFC0221B84800F08AFCAF
:101BE0000121B64800F086FCB548007840F00800B6
:101BF000B34908700846007800F00F000F2802D1A2
:101C0000002090490870BDEC048B10BD00BF00247B
:101C10008EE08C48007800F0010010B1FFF729FE3B
:101C200086E0AD48007801280CD1AC48007848B96E
:101C3000AB48007830B9FEF747FE80B90120A849CB
:101C400008700CE0A6480078012808D1A248007866
:101C5000012804D0FEF799FE0020A1490870FFF783
:101C600018F9A048007801281ED100209D4908706D
:101C70009B4801789CA009F02BFF99480078012827
:101C800011D1A048C16808F0F6FA9F4B25229F4960
:101C90009C4808F091F99E48006808B9012000E0CE
:101CA00000209B49086022E08E48007802281ED15F
:101CB00000208C4908708A48017896A009F008FF36
:101CC00087480078012811D18E48C16808F0D3FAFE
:101CD0008D4B252296498B4808F06EF98C48006898
:101CE00008B9012000E000208949086000BF914840
:101CF000006891490968401A06D07948007801289F
:101D000002D1804808F04DFA8A4800688A4909687B
:101D100088420CD98748006887490860002402E09F
:101D200086490C55641CDC2CFADBFEF785FB00BFF2
:101D30006FE770B50024002508E006F025F804469A
:101D40000CB1032D00D102E0681CC5B2F5E700BF5D
:101D5000204670BD10B500BF4FF40041784800F038
:101D6000ADFB0028F8D1642003F08AF800BF4FF4DF
:101D70000041734800F0A2FB0028F8D110BD4FF4D9
:101D8000A06000F043FAA82003F018F8FEF77EFAEE
:101D900006F028F905F0AAFFFEF716FC4F49087077
:101DA00001226849684806F0F5F866484078FF283F
:101DB00003D101206549087003E062484078634917
:101DC00008704FF4165003F064FC4FF4E13003F058
:101DD00046FE4FF4165003F0CFFF4FF4165003F0B9
:101DE0002EFF5B4803F0C6FB42F2CF0141F2873081
:101DF00005F0DCFE42F2CF0144F61F6005F019FF4A
:101E000006F04EF95348007840F040005149087000
:101E100000203F49086001204F49C1F8B0024F49F6
:101E200008604F490870087001214E4802F047F8D9
:101E3000322003F025F84FF400414B4896E00000B3
:101E4000000402400E0000200D0A565432D5FDB3A6
:101E5000A32D2D2D2D2D2D2D2D2D2D2D2D2D2D2D3C
:101E60002D2D0A000D0A565432D2ECB3A32D2D2D80
:101E70002D2D2D2D2D2D2D2D2D2D2D2D2D2D0A00E2
:101E80001000002052B81E85EB510A4000000000EF
:101E90000000B04018000020B9A6B7C531B5E7D1A1
:101EA000B9D6B53D25660A00B9A6B7C531B5C45A3D
:101EB0004A5031D6B53D25660A00000000100240A8
:101EC0000D000020B9A6B7C531B5C45A4A5032D664
:101ED000B53D25660A000000060000200500002030
:101EE00004000020260E002066696C652075617272
:101EF00074315F7265635F666C61673A312D25648A
:101F00000D0A0000B010002000000020D4140020B2
:101F10009002404266696C652075617274315F722F
:101F200065635F666C61673A322D25640D0A0000B7
:101F3000FC1400203C0E0020440E00202C0D00203C
:101F4000000002400900002000FC0D0808000020ED
:101F5000404B4C002000002000804042B4824042B0
:101F60009200002000000140000C024000F0C0FA86
:101F70004FF40061064800F0BBFA4021054800F02C
:101F8000B7FA00200449088004490860FFF73EFEC4
:101F900000000240000C02403E000020480E0020DD
:101FA000704700BFFEE700BFFEE700BFFEE700BFCF
:101FB000FEE7704770477047704700000CB500207F
:101FC000019000907648006840F4803074490860C1
:101FD00000BF7348006800F4003000900198401C76
:101FE0000190009818B90198B0F5A04FF1D16C4854
:101FF000006800F4003010B10120009001E00020E2
:1020000000900098012846D165484030006840F0B3
:1020100080506349403108606248006840F44040A5
:10202000604908605E48083000685D490831086012
:102030000846006840F4004008600846006840F424
:10204000A05008605848091F0860081F006840F049
:102050008070091F086000BF5148006800F00070E0
:102060000028F9D040F20570504908604C4808300B
:10207000006820F003004A490831086008460068FB
:1020800040F00200086000BF45480830006800F0DA
:102090000C000828F8D10CBD10B54548006840F484
:1020A0007000434908603E48006840F001003C4928
:1020B000086000203A4908310860394800683D4905
:1020C0000840374908603C48091D0860081F00683F
:1020D00020F48020091F0860002031490C3108607D
:1020E000FFF76CFF4FF0006031498039086010BD88
:1020F00070B500200022022300240221284D08355B
:102100002D6805F00C0020B1042806D0082834D131
:1021100007E02A4D2A4E356033E02A4D284E3560BF
:102120002FE01F4D2D1D2D68C5F380541C4D2D1D16
:102130002D6805F03F0154B1224DB5FBF1F5184E65
:10214000361D3668C6F3881605FB06F209E01B4DFE
:10215000B5FBF1F5124E361D3668C6F3881605FB41
:1021600006F20F4D2D1D2D68C5F301456D1C6B004A
:10217000B2FBF3F5124E356003E0104D104E3560A2
:1021800000BF00BF064D08352D68C5F303150E4E80
:10219000705D0B4D2D68C540094E356070BD000067
:1021A000003802400070004008544007003C0240E4
:1021B00088ED00E0FFFFF6FE103000240024F4005C
:1021C0009800002000127A009C00002009488047F7
:1021D00009480047FEE7FEE7FEE7FEE7FEE7FEE709
:1021E000FEE7FEE7FEE7FEE704480549054A064B21
:1021F0007047000099200008890100089898002085
:10220000989E0020989A0020989A00203249014315
:10221000324A1160704770B5002100230F22C47844
:102220001CB32E4C246804F4E064C4F5E064C4F3E9
:102230000721C1F10404E3B20A4144789C40E1B2B1
:102240008478144021430C07210E254C05786155F4
:10225000047804F01F050124AC4005786D11AD0031
:1022600005F1E025C5F8004109E0047804F01F05F8
:102270000124AC401B4D0678761145F8264070BD10
:10228000194A0A400243154B1B1F1A60704739B1A7
:10229000124A121D12680243104B1B1D1A6006E001
:1022A0000E4A121D126882430C4B1B1D1A607047A8
:1022B000042808D14FF0E021096941F004014FF0F2
:1022C000E022116107E04FF0E021096921F00401EB
:1022D0004FF0E022116170470000FA050CED00E0BC
:1022E00000E400E080E100E080FFFF1F10B504463D
:1022F0009848844208D10121084600F086FB00215D
:10230000012000F082FB76E09348844208D101214D
:10231000022000F07AFB0021022000F076FB6AE048
:102320008E48844208D10121042000F06EFB002178
:10233000042000F06AFB5EE08948844208D1012154
:10234000082000F062FB0021082000F05EFB52E054
:102350008448844208D10121102000F056FB00215E
:10236000102000F052FB46E07F48844208D1012152
:10237000202000F04AFB0021202000F046FB3AE03C
:102380007A48844208D10121402000F03EFB002120
:10239000402000F03AFB2EE07548844208D101212C
:1023A000802000F032FB0021802000F02EFB22E094
:1023B0007048844208D10121801500F026FB0021DD
:1023C000A01500F022FB16E06B48844208D10121E1
:1023D000401500F01AFB0021601500F016FB0AE022
:1023E0006648844207D10121001500F00EFB002150
:1023F000201500F00AFB10BDF0B50A4600210023AD
:10240000002400BF3DE0012505FA01F3156805EA47
:1024100003049C4234D105684F000326BE40B543F7
:10242000056015794E00B54006683543056015799D
:10243000012D02D01579022D16D185684F00032693
:10244000BE40B543856055794E00B540866835433A
:102450008560456801268E40B5434560456896799C
:102460008E40B6B235434560C5684F000326BE4076
:10247000B543C560D5794E00B540C6683543C560E3
:10248000491C1029BFD3F0BD4FF6FF710160002138
:10249000017141718171C171704708B54FF480328B
:1024A0000092009A0A430092009AC261C161009AA8
:1024B000C261C2690092C269009208BD0246002052
:1024C00013690B400BB1012000E00020704701466A
:1024D000086980B270470246002053690B400BB177
:1024E000012000E0002070470146486980B2704733
:1024F00001837047418370470AB1018300E0418343
:1025000070474161704742694A4042617047F0B587
:10251000002300244D07ED0E02FA05F3CE1000F162
:10252000200555F826504E07F70E0F26BE40B5433E
:10253000CF1000F1200646F82750CE1000F12005FC
:1025400055F8265045EA0304CE1000F1200545F861
:102550002640F0BD00000240000402400008024096
:10256000000C02400010024000140240001802401B
:10257000001C0240002002400024024000280240CB
:10258000F948006840F00100F74908600020F6496A
:1025900008310860F4480068F4490840F2490860CE
:1025A000F348091D0860F348EF4984310860F0489A
:1025B0001038091D0860EC48006820F48020EA49C2
:1025C00008600020E8490C310860E7498C31086058
:1025D00070470021E44A921C117011460870704740
:1025E00010B501460022002300204A11012A02D121
:1025F000DD4C236808E0022A03D1DB4C70342368E9
:1026000002E0D94C7434236801F01F020124944085
:102610001C400CB1012000E0002010BD38B50020A6
:1026200000900024002500BF3120FFF7D9FF0546A8
:102630000098401C00900098B0F5A04F01D0002DEC
:10264000F2D03120FFF7CCFF08B1012400E00024D4
:10265000204638BD01460020C34A106820F0F8002B
:1026600040EAC10010607047C3490860704700210C
:10267000BD4A703211701170012802D004280AD1AD
:1026800004E00121B84A7032117005E00521B64A14
:102690007032117000E000BF00BF7047B74908609A
:1026A000704770B5049C41EA82150126C6EB5306BB
:1026B00045EA0645054345EA0465AB4E361D3560DF
:1026C00070BDAD4908667047820142EA0172A64BAF
:1026D00084331A607047A8498866704710B5830133
:1026E00043EA016343EA02739F4C8834236010BDC0
:1026F000A14908677047A049C86470470246002096
:10270000994B0833186820F0EC6042EA0103184343
:10271000954B08331860704702460020924B0833EF
:10272000186820F0784042EA010318438E4B0833C2
:1027300018607047014600208B4A0832106820F06C
:10274000030008431060704787480830006800F0B5
:102750000C00704701460020834A0832106820F0C0
:10276000F000084310607047014600207E4A08329E
:10277000106820F4E05008431060704701460020C4
:10278000794A0832106820F4604040EAC1001060C5
:102790007047F0B500210022002402250026022304
:1027A000714F08373F6807F00C0121B1042905D0AB
:1027B000082937D105E0724F076036E0714F076096
:1027C00033E0694F3F1D3F68C7F38056664F3F1D9A
:1027D0003F6807F03F036EB16A4FB7FBF3F7DFF8CE
:1027E00088C10CF1040CDCF800C0CCF3881C07FB9A
:1027F0000CF40CE0624FB7FBF3F7DFF86CC10CF19F
:10280000040CDCF800C0CCF3881C07FB0CF4564F1A
:102810003F1D3F68C7F301477F1C7D00B4FBF5F700
:10282000076002E0564F076000BF00BF4E4F0837F9
:102830003F6807F0F0010909534F7A5C0768D740F9
:102840004760494F08373F6807F4E051890A4E4F07
:102850007A5C4768D7408760434F08373F6807F482
:102860006041490B484F7A5C4768D740C760F0BD6C
:10287000002100F44072B2F5407F0AD13A4A083292
:10288000116821F4F811414A02401143364A0832D6
:102890001160354A70321268C0F30B031A43324B91
:1028A00070331A60704735494439086070473349BE
:1028B000403908607047364908607047014600207B
:1028C000294A8C32106820F01F004A1E1043264A05
:1028D0008C321060704701460020234A8C32106809
:1028E00020F4F8504A1E40EA02201F4A8C32106041
:1028F0007047014600201C4A8C32106820F44010BA
:1029000008431060704701460020174A8C32106857
:1029100020F4400008431060704701460020124A2E
:102920008C32106820F44030084310607047194919
:102930000860704739B10C4A3032126802430A4BC2
:1029400030331A6006E0084A303212688243064B80
:1029500030331A607047F9B1034A343212680243C7
:10296000014B34331A601CE000380240FFFFF6EAE6
:10297000103000240030002000004742800E474203
:102980000024F40000127A00AC000020FFFCFF0FCE
:102990005C014742E01147428F4A126882438E4BE6
:1029A0001A60704739B18C4A121D126802438A4B73
:1029B0001B1D1A6006E0884A121D12688243864B6E
:1029C0001B1D1A60704739B1834A0C3212680243EA
:1029D000814B0C331A6006E07F4A0C321268824346
:1029E0007D4B0C331A60704739B17B4A1032126844
:1029F0000243794B10331A6006E0774A10321268AE
:102A00008243754B10331A60704739B1724A243AC9
:102A100012680243704B243B1A6006E06E4A243A67
:102A2000126882436C4B243B1A60704739B16A4A82
:102A3000203A12680243684B203B1A6006E0664A5F
:102A4000203A12688243644B203B1A60704739B1C8
:102A5000614A1C3A126802435F4B1C3B1A6006E055
:102A60005D4A1C3A126882435B4B1C3B1A607047FC
:102A700039B1594A143A12680243574B143B1A6051
:102A800006E0554A143A12688243534B143B1A60CD
:102A9000704739B1504A103A126802434E4B103B0E
:102AA0001A6006E04C4A103A126882434A4B103BC7
:102AB0001A60704739B1484A1C3212680243464BCB
:102AC0001C331A6006E0444A1C3212688243424BAF
:102AD0001C331A60704739B13F4A203212680243F2
:102AE0003D4B20331A6006E03B4A20321268824395
:102AF000394B20331A60704739B1374A2432126893
:102B00000243354B24331A6006E0334A24321268FC
:102B10008243314B24331A60704739B12E4A2C322C
:102B2000126802432C4B2C331A6006E02A4A2C32DE
:102B300012688243284B2C331A60704739B1264AF9
:102B4000303212680243244B30331A6006E0224AC6
:102B5000303212688243204B30331A6070470128AC
:102B600008D11D493C31096841F008011A4A3C323C
:102B7000116007E018493C31096821F00801164A44
:102B80003C321160704739B1134A273A1278024338
:102B9000114B273B1A7006E00F4A273A12788243FE
:102BA0000D4B273B1A7070470B484030006840F0CF
:102BB0008070094940310860704701460020064A8C
:102BC000283A12680A400AB1012000E0002070474C
:102BD00001492639087070473438024010B5012188
:102BE0008803FFF756FF00214FF48040FFF751FFA5
:102BF00010BD1C49086070471B490862704730B51A
:102C000000228B071C0F0F2303FA04F2154B083325
:102C10008C1053F824309343124C08348D1044F830
:102C2000253023468C1053F824308C07240F00FAEB
:102C300004F423430B4C08348D1044F8253030BD88
:102C40000949DC3108607047084908607047002076
:102C500004492031096801F4807109B1012000E0C4
:102C6000002070470038014000002742000427423E
:102C700010B50446FB48844208D101211020FFF71B
:102C800008FF00211020FFF704FF57E0F6488442B8
:102C900009D101214804FFF7EBFE00214FF4003079
:102CA000FFF7E6FE4AE0F148844209D10121880499
:102CB000FFF7DEFE00214FF48020FFF7D9FE3DE054
:102CC000EB48844209D10121C804FFF7D1FE00215D
:102CD0004FF40020FFF7CCFE30E0E648844209D1F3
:102CE00001210805FFF7C4FE00214FF48010FFF713
:102CF000BFFE23E0E048844208D101212020FFF7F5
:102D0000C8FE00212020FFF7C4FE17E0DB48844204
:102D100009D101218807FFF7ABFE00214FF0804069
:102D2000FFF7A6FE0AE0D648844207D101214005FC
:102D3000FFF79EFE00216005FFF79AFE10BD2DE90A
:102D4000FF4705460E460024A14600BFA046B089B5
:102D500000B100BF2C8A24F44054F08804432C8234
:102D6000A88940F4004441F20C608443B088318962
:102D70000843718908430443AC81AC8A24F440744D
:102D8000B0890443AC826846FFF703FDB54885422D
:102D900002D0B948854202D1DDF80C9001E0DDF89F
:102DA0000890A88900F4004040B109EBC90000EB8D
:102DB000091031684900B0FBF1F707E009EBC900E1
:102DC00000EB091031688900B0FBF1F76420B7FB14
:102DD000F0F004012009642101FB1078A88900F4B7
:102DE000004040B1322000EBC800B0FBF1F000F031
:102DF0000700044308E0322000EB08106421B0FB18
:102E0000F1F000F00F0004432C81BDE8FF874FF480
:102E10001651016000218180C18001810C21418116
:102E200000218181704710B502460020108A20F4ED
:102E300070600B884C8823438C882343CC882343C1
:102E40001843108210BD0021018041808180C18023
:102E5000704721B1828942F40052828104E0828964
:102E60004DF6FF731A4082817047028B02F47F4255
:102E70000283028B0A430283704721B1828942F4A4
:102E80000042828103E08289C2F30E028281704790
:102E900021B1828A42F40062828204E0828A4FF287
:102EA000FF731A4082827047C1F308028280704724
:102EB00001468888C0F308007047028A4FF6F07315
:102EC0001A400282028A0A430282704721B1828933
:102ED00042F00202828104E082894FF6FD731A40BB
:102EE0008281704782894FF2FF731A408281828902
:102EF0000A4382817047028A4FF6DF731A400282CA
:102F0000028A0A430282704721B1028A42F4804257
:102F1000028204E0028A4BF6FF731A400282704775
:102F2000818941F001018181704721B1828A42F09B
:102F30000802828204E0828A4FF6F7731A40828286
:102F40007047028BD2B20283028B42EA01220283D3
:102F5000704721B1828A42F02002828204E0828A94
:102F60004FF6DF731A408282704721B1828A42F0A5
:102F70001002828204E0828A4FF6EF731A40828246
:102F80007047828A4FF6FB731A408282828A0A4314
:102F90008282704721B1828A42F00202828204E07A
:102FA000828A4FF6FD731A40828270471AB1838A73
:102FB0000B43838202E0838A8B4383827047F0B5A0
:102FC0000346002400260025002040F66A17B94277
:102FD00000D100BF1846C1F3421401F01F060127BB
:102FE00007FA06F5012C01D10C3004E0022C01D1C6
:102FF000103000E014301AB107682F43076002E078
:103000000768AF430760F0BD02460020B1F5007FBE
:1030100000D100BF13880B400BB1012000E000205D
:10302000704701F40072B2F5007F00D100BFCA43BF
:103030000280704770B5024600240023002500205E
:1030400040F66A16B14200D100BFC1F3421501F04B
:103050001F03012606FA03F3012D13D1968933408D
:1030600017E000000010014000440040004800400C
:10307000004C004000500040001401400078004027
:10308000007C0040022D02D1168A334001E0968A6E
:1030900033400C12012606FA04F41688344013B1AA
:1030A0000CB1012000E0002070BD10B5002200230B
:1030B00040F66A14A14200D100BF0A1201249440D4
:1030C000A3B2DC43048010BD016821F0010101605E
:1030D0000021016041608160C16001612121416185
:1030E000DB49884204D13D21D94A103A91608CE0F5
:1030F000D7491831884205D14FF47461D44A103A47
:10310000916082E0D2493031884205D14FF4741188
:10311000CF4A103A916078E0CD494831884205D1D4
:103120004FF07461CA4A103A91606EE0C84960314C
:10313000884204D1C749C64A103AD16065E0C44903
:103140007831884204D1C449C14A103AD1605CE068
:10315000BF499031884204D1C049BD4A103AD1607C
:1031600053E0BB49A831884205D14FF03D51B84AE0
:10317000103AD16049E0BA49884204D13D21B84AA9
:10318000083A116041E0B6491831884205D14FF440
:103190007461B34A083A116037E0B149303188426E
:1031A00005D14FF47411AE4A083A11602DE0AC49D4
:1031B0004831884205D14FF07461A94A083A11603C
:1031C00023E0A7496031884204D1A249A44A121FD2
:1031D00011601AE0A2497831884204D19E49A04A80
:1031E000121F116011E09E499031884204D19B4921
:1031F0009B4A121F116008E09949A831884204D106
:103200004FF03D51964A121F1160704710B50022D1
:103210000268944B1A40CC680B6823434C692343E3
:103220008C692343CC6923430C6A23434C6A2343B0
:103230008C6A23434C6B23438C6B23431A430260F9
:10324000426922F00702D1E90B3423431A43426159
:103250000B6943604B6883608B68C36010BD0021BD
:10326000016041608160C160016141618161C16152
:10327000016241628162C16201634163816370479F
:1032800021B1026842F00102026003E0026822F00C
:1032900001020260704721B1026842F400420260FC
:1032A00003E0026822F400420260704721B1026824
:1032B00042F02002026003E0026822F02002026075
:1032C0007047416070470146486880B2704722B13C
:1032D000036843F40023036003E0036823F400233E
:1032E00003600161704721B1026842F480220260EC
:1032F00003E0026822F48022026070470AB1016193
:1033000000E0C1607047014600200A6802F4002214
:103310000AB1012000E000207047014600200A6841
:1033200002F001020AB1012000E0002070470146CE
:1033300000204A6902F03800704730B503460A465B
:1033400000200024464DAB4202D24149103901E031
:103350004349103902F000550DB14C6800E00C688B
:10336000414D2C4004EA02050DB1012000E000208F
:1033700030BD02463A4B9A4202D23548103801E03D
:103380003748103801F000531BB1374B0B40C36076
:1033900002E0354B0B408360704710B501F08003AD
:1033A0004BB122B1436943F08003436103E04369B9
:1033B00023F08003436180290BD02AB1036801F018
:1033C0001E042343036004E0036801F01E04A343CA
:1033D000036010BD70B50246002000240025204E79
:1033E000B24202D21A4B103B01E01D4B103B1F4E64
:1033F0000E4036B11E2606EAD124166806EA0405F8
:1034000002E0566906F0800501F000560EB15C68D6
:1034100000E01C68144E344004EA010616B10DB1F8
:10342000012000E0002070BD02460D4B9A4202D2FE
:103430000748103801E00A48103801F000531BB16A
:10344000094B0B40C36002E0074B0B4083607047A1
:10345000106002403D000020400F002000003D2091
:10346000106402403F801CF07D0F7D0F3C0F3C0F2D
:1034700010B50446FE48844208D101210846FFF7F2
:1034800008FB00210120FFF704FB9DE0B4F1804F11
:1034900008D101210846FFF7EBFA00210120FFF7D0
:1034A000E7FA91E0F348844208D101210220FFF7B6
:1034B000DFFA00210220FFF7DBFA85E0EE488442C4
:1034C00008D101210420FFF7D3FA00210420FFF7DF
:1034D000CFFA79E0E948844208D101210820FFF7BA
:1034E000C7FA00210820FFF7C3FA6DE0E4488442E0
:1034F00008D101211020FFF7BBFA00211020FFF7AF
:10350000B7FA61E0DF48844208D101212020FFF7AB
:10351000AFFA00212020FFF7ABFA55E0DA488442E9
:1035200008D101210220FFF7B4FA00210220FFF7A1
:10353000B0FA49E0D548844209D101210804FFF7D7
:10354000A8FA00214FF48030FFF7A3FA3CE0D048FE
:10355000844209D101214804FFF79BFA00214FF46E
:103560000030FFF796FA2FE0CA48844209D10121C2
:103570008804FFF78EFA00214FF48020FFF789FAC4
:1035800022E0C548844208D101214020FFF770FAAB
:1035900000214020FFF76CFA16E0C048844208D1B1
:1035A00001218020FFF764FA00218020FFF760FAF4
:1035B0000AE0BB48844207D101218015FFF758FA81
:1035C0000021A015FFF754FA10BD00220288A84B75
:1035D00098420ED0AC4B98420BD0B0F1804F08D03F
:1035E000A44B984205D0A44B984202D0A34B9842DA
:1035F00004D14FF68F731A404B881A43A04B984260
:1036000007D0A04B984204D04FF6FF431A400B89D5
:103610001A4302804B68C3620B880385944B98421F
:1036200002D0994B984201D18B7A03860123838281
:1036300070474FF0FF3141600021018001814180DE
:10364000817270470185828270470A460021018895
:103650004FF68F73194011430180704741627047E4
:10366000C16270470146486A70470146088D70473D
:1036700021B1028842F00202028004E002884FF683
:10368000FD731A400280704721B1028842F00402A3
:10369000028004E002884FF6FB731A4002807047F4
:1036A00021B1028842F08002028004E002884FF6D5
:1036B0007F731A400280704702884FF6F7731A40F2
:1036C000028002880A430280704702884FF6FF4357
:1036D0001A40028002880A430280704721B10288A2
:1036E00042F00102028004E002884FF6FE731A40A5
:1036F0000280704770B5002400220023058C4FF62D
:10370000FE7635400584028C8388048B4FF68F75D6
:103710002C40B51E2C400D882C43751E2A408D89E7
:103720002A434D882A43524DA84202D0564DA84202
:1037300013D14FF6F7752A40CD892A434FF6FB7512
:103740002A408D882A434FF6FF652B404FF6FF55E0
:103750002B400D8A2B434D8A2B43838004838D6835
:103760004563028470BD70B5002400220023058CDF
:103770004FF6EF7635400584028C8388048B48F63B
:10378000FF752C404FF6FF452C400D884FF6FF7615
:1037900006EA05252C434FF6DF752A408D8906EA97
:1037A00005152A434D8806EA05152A43304DA842DF
:1037B00002D0354DA8421DD14FF67F752A40CD89E4
:1037C0004FF6FF7606EA05152A434FF6BF752A40E5
:1037D0008D8806EA05152A434FF6FF352B404FF238
:1037E000FF752B400D8A06EA85052B434D8A06EAB4
:1037F00085052B43838004838D688563028470BDB7
:1038000070B5002400220023058C4FF6FF6635407A
:103810000584028C8388848B4FF68F752C404FF67D
:10382000FC752C400D882C434FF6FF552A408D899E
:103830004FF6FF7606EA05252A434D8806EA052558
:103840002A430B4DA84202D00F4DA84238D14FF267
:10385000FF752A40CD894FF6FF7606EA05252A43F3
:103860004FF6FF352A408D8806EA05252A4319E0E0
:10387000000001400004004000080040000C00402F
:1038800000100040001400400004014000400140CE
:10389000004401400048014000180040001C004066
:1038A000002000404EF6FF752B404DF6FF752B4073
:1038B0000D8A06EA05152B434D8A06EA05152B43AA
:1038C000838084838D68C563028470BD70B50022D7
:1038D00000230024058C4EF6FF7635400584038CCA
:1038E0008488828B48F6FF752A404FF6FF452A40B0
:1038F0000D884FF6FF7606EA05252A434DF6FF753B
:103900002B408D8906EA05352B434D8806EA05359F
:103910002B43FE4DA84202D0FD4DA84208D14BF6E4
:10392000FF752C400D8A4FF6FF7606EA85152C436D
:10393000848082838D680564038470BD00210180CA
:103940004180818081608181C18101824182704793
:1039500070B50346002000241846183001258D401C
:10396000ACB21D8CA5431D8409B108290AD100EB16
:10397000610005684FF68F76354005600568154390
:1039800005600FE00D1FC5F34E052844056848F695
:10399000FF763540056005684FF6FF7606EA022699
:1039A0003543056070BD4163704781637047C163F3
:1039B0007047016470470A460021018B4FF68F73F0
:1039C00019401143018370470A460021018B48F6D4
:1039D000FF7319404FF6FF7303EA02231943018373
:1039E00070470A460021818B4FF68F7319401143AF
:1039F000818370470A460021818B48F6FF73194086
:103A00004FF6FF7303EA02231943818370470A4686
:103A10000021018B4FF6F773194011430183704762
:103A20000A460021018B4FF2FF7319404FF6FF73D6
:103A300003EA02231943018370470A460021818B60
:103A40004FF6F77319401143818370470A460021EE
:103A5000818B4FF2FF7319404FF6FF7303EA022385
:103A60001943818370470A460021018B4FF6FB738F
:103A700019401143018370470A460021018B4FF61C
:103A8000FF3319404FF6FF7303EA02231943018302
:103A900070470A460021818B4FF6FB731940114392
:103AA000818370470A460021818B4FF6FF3319400E
:103AB0004FF6FF7303EA02231943818370470A46D6
:103AC0000021018B4FF67F7319401143018370472A
:103AD0000A460021018BC1F30E014FF6FF7303EA82
:103AE00002231943018370470A460021818B4FF658
:103AF0007F7319401143818370470A460021818BEF
:103B0000C1F30E014FF6FF7303EA022319438183C9
:103B100070470A460021018C4FF6FD73194011438E
:103B2000018470470A460021018C4FF6F773194053
:103B30001143018470470A460021018C4FF6DF7360
:103B400019404FF6FF7303EA0213194301847047CB
:103B50000A460021018C4FF67F7319404FF6FF7320
:103B600003EA02131943018470470A460021018CBD
:103B70004FF6FF5319404FF6FF7303EA0223194330
:103B8000018470470A460021018C4FF2FF731940EF
:103B90004FF6FF7303EA02231943018470470A4674
:103BA0000021018C4DF6FF7319404FF6FF7303EAB5
:103BB000023319430184704730B5002301248C403F
:103BC000A3B2048C9C430484048C02FA01F5ADB2C8
:103BD0002C43048430BD30B5002304248C40A3B2B0
:103BE000048C9C430484048C02FA01F5ADB22C438E
:103BF000048430BD828B4FF2FF331A408283828B64
:103C00004FF6FF7303EA01231A4382837047F0B52E
:103C10000C461546002100220026078C4EF6FF7C3C
:103C200007EA0C070784818B028C4FF6FF7707EABF
:103C3000043640F6FF4739404FF6FF7707EA05277D
:103C400039434FF6FF7707EA0337394345F6FF77E5
:103C50003A4046F480573A4381830284F0BD828B18
:103C60004FF6F3731A408283828B0A438283704734
:103C7000F0B50C461546002100220026078C4FF6B1
:103C8000FF6C07EA0C070784818B028C4FF6FF77E5
:103C900007EA04264FF60C7739404FF6FF7707EA1C
:103CA00003172F4339434FF2FF573A4046F48077CA
:103CB0003A4381830284F0BD028B4FF2FF331A40F6
:103CC0000283028B4FF6FF7303EA01231A43028338
:103CD0007047F0B50C461546002100220026078CDF
:103CE0004FF6EF7C07EA0C070784018B028C4FF636
:103CF000FF7707EA041640F6FF4739404FF6FF7793
:103D000007EA033739434FF6FF7703E0000001402D
:103D10000004014007EA052739434FF65F773A4030
:103D200046F010073A4301830284F0BD028B4FF640
:103D3000F3731A400283028B0A4302837047F0B583
:103D40000C46154600210022068C4FF6FE773E40B9
:103D50000684018B028C4FF60C7631407E1C06EAFD
:103D600003162E4331434FF6F576324044F00106F8
:103D7000324301830284F0BD70B505460C462088AD
:103D800050B92389A28861882846FFF7D8FFE188C7
:103D90002846FFF7CBFF25E0208804280AD1238995
:103DA000A28861882846FFF794FFE1882846FFF73C
:103DB00083FF17E0208808280AD12389A288618818
:103DC0002846FFF755FFE1882846FFF748FF09E03E
:103DD0002389A28861882846FFF719FFE1882846D1
:103DE000FFF708FF70BD0021018041800121818023
:103DF0000021C180018170472DE9F04105460C4644
:103E000000260127608808B9022600E00026A08865
:103E1000012801D1022700E001272088A0B92389C9
:103E2000A28861882846FFF78AFFE1882846FFF7C5
:103E30007DFF23893A4631462846FFF74AFFE1884D
:103E40002846FFF739FF13E02389A28861882846B6
:103E5000FFF73FFFE1882846FFF72EFF23893A4608
:103E600031462846FFF76BFFE1882846FFF75EFFE3
:103E7000BDE8F0810146486B70470146886B70478A
:103E80000146C86B70470146086C70470A884B882A
:103E90001A438B881A43CB881A430B891A434B89E0
:103EA0001A438B891A43A0F84420704700210180EF
:103EB00041808180C180018141818181704731B120
:103EC000B0F8442042F40042A0F8442005E0B0F8E5
:103ED0004420C2F30E02A0F84420704721B182882A
:103EE00042F00402828004E082884FF6FB731A409D
:103EF0008280704721B1828842F00102828004E012
:103F000082884FF6FE731A40828070471AB1838907
:103F10000B43838102E083898B43838170478182D5
:103F2000704702460020138A0B400BB1012000E0CD
:103F300000207047CA430282704730B50246002015
:103F400000230024158A05EA0103958905EA010486
:103F500013B10CB1012000E0002030BDCA43028241
:103F6000704741EA0203A0F8483070471AB18389CC
:103F70000B43838102E083898B438381704721B1A6
:103F8000828842F00802828004E082884FF6F7734C
:103F90001A408280704701894FF6F8721140018102
:103FA00070470A46002101894FF68F73194011436B
:103FB0000181704730B504460D4629462046FFF77B
:103FC000F0FF208940F00700208130BD2DE9F0414D
:103FD00004460D4616461F46602D06D13B4601227B
:103FE00031462046FFF775FE05E03B46012231468B
:103FF0002046FFF7A4FE29462046FFF7D2FF20897E
:1040000040F007002081BDE8F08130B50C4600216A
:104010000189C9B24FF6FF7505EA0325154325430B
:104020002943018130BD2DE9F04105460E46174672
:104030009846002443463A4631462846FFF7E5FFB6
:104040002C894FF6F870044044F007044FF68F7047
:10405000044044F070042C81BDE8F081F0B50446C2
:104060000D4616461F463B46324629462046FFF778
:10407000CCFF208940F480402081F0BD82884FF63B
:104080008F731A40828082880A4382807047028937
:104090004FF6F8731A40028102890A430281704781
:1040A00002894FF67F731A40028102890A43028116
:1040B0007047F0B50C4615461E460021002200232D
:1040C0000189028B038C4FF6F877394021434FF674
:1040D000FC473A4040F201173A434FF6DD773B4048
:1040E0004FF6FF7707EA06172F433B430181028310
:1040F0000384F0BD21B1828842F08002828004E016
:1041000082884FF67F731A4082807047A0F8501063
:1041100070470000002041490860091D0860091D22
:104120000860091D08603E483C491431086070472A
:1041300000213A498279002A3AD00A461268036877
:104140009A430B461A600A1D126803689A430B1DB6
:104150001A60027911440A6803681A430A602F4AF8
:104160000832126803689A432C4B08331A601A1DF0
:10417000126803689A43294B0C331A604279102A5B
:104180000ED11A1F126803681A43244B08331A60B1
:104190001A1D126803681A43204B0C331A600DE095
:1041A0001E49427911440A6803681A430A6005E00F
:1041B000027911440A6803689A430A607047002133
:1041C000016001710C214171002181717047134917
:1041D000103109680143114A1032116070470146DD
:1041E00000200E4A143212680A400AB1012000E091
:1041F00000207047094914310860704701460020CB
:10420000064A143212680A400AB1012000E0002078
:10421000704702491431086070470000003C0140BB
:10422000FFFF7F0010B501214020FEF7FFFB0021BA
:104230004020FEF7FBFB10BD30B12149096841F079
:1042400004011F4A116005E01D49096821F00401BD
:104250001B4A116070471A4808300068704730B137
:104260001749096841F00801154A116005E0144931
:10427000096821F00801124A1160704701460020C8
:104280000F4A121D12680A400AB1012000E0002006
:1042900070476FEA00110A4A121D1160704701460B
:1042A0000020074A121D12680A400AB1012000E0EE
:1042B00000207047C143C9B2014A121D1160704706
:1042C00000080650FE4A1070704730B1FC4909687A
:1042D00041F48071FA4A116005E0F949096821F456
:1042E0008071F74A1160704730B1F549096841F4AF
:1042F0000071F34A116005E0F149096821F4007189
:10430000EF4A1160704730B1ED49096841F48061AE
:10431000EB4A116005E0EA49096821F48061E84A46
:1043200011607047E648006840F40060E4490860A6
:104330007047E348006840F48050E14908607047E6
:10434000DF481030006800F0004028B1DD48DC494B
:10435000091D0860DC4808607047D94810300068C3
:1043600040F00040D6491031086070470920D44918
:104370000C31096801F48031B1F5803F01D1012091
:1043800020E0CF490C31096801F0100109B1062085
:1043900018E0CB490C31096801F4807109B10220A1
:1043A00010E0C7490C31096801F0EF0109B107209D
:1043B00008E0C3490C31096801F0020109B1082085
:1043C00000E00920704708B509200090FFF7CEFFF4
:1043D000009002E0FFF7CAFF00909DF8000001285E
:1043E000F8D09DF8000008BD70B504460A460026C6
:1043F000092502B909E0012A01D1160205E0022AC5
:1044000001D1160201E04FF44076FFF7DCFF0546CC
:10441000092D2DD1AA481030006820F44070A84919
:10442000103108600846006830430860084600689C
:1044300020F0F80008600846006844F002010843D4
:104440009F49103108600846006840F480300860D9
:10445000FFF7B9FF05469A481030006820F00200C7
:104460009749103108600846006820F0F80008609D
:10447000284670BD30B5024600250924FFF7A3FF8A
:10448000044602B909E0012A01D1150205E0022A19
:1044900001D1150201E04FF44075092C20D1884864
:1044A0001030006820F440708549103108600846DB
:1044B0000068284308600846006840F0040008606F
:1044C0000846006840F480300860FFF77CFF04462F
:1044D0007B481030006820F00400794910310860F2
:1044E000204630BD30B5024600250924FFF76BFF9A
:1044F000044602B909E0012A01D1150205E0022AA9
:1045000001D1150201E04FF44075092C20D16C480F
:104510001030006820F44070694910310860084686
:104520000068284308600846006840F004000860FE
:104530000846006840F480300860FFF744FF0446F6
:104540005F481030006820F004005D4910310860B9
:10455000204630BD30B5024600250924FFF733FF61
:10456000044602B909E0012A01D1150205E0022A38
:1045700001D1150201E04FF44075092C20D15048BB
:104580001030006820F440704D4910310860084632
:104590000068284308600846006840F4004008604E
:1045A0000846006840F480300860FFF70CFF0446BE
:1045B00043481030006820F4004041491031086041
:1045C000204630BD70B5064614461D460922FFF749
:1045D000FAFE0246092A1ED139481030006820F43C
:1045E00040703749103108600846006840F4407058
:1045F00008600846006840F001000860346075609B
:10460000FFF7E1FE02462E481030006820F001005E
:104610002B4910310860104670BD30B502460C467B
:104620000925FFF7D0FE0546092D1DD1244810307D
:10463000006820F440702249103108600846006884
:1046400040F4007008600846006840F0010008600F
:104650001460FFF7B8FE054619481030006820F0D6
:104660000100174910310860284630BD30B50246B8
:104670000C460925FFF7A7FE0546092D1DD1104858
:104680001030006820F440700D4910310860084671
:10469000006840F4807008600846006840F001003F
:1046A00008601480FFF78FFE05460548103000684B
:1046B00020F00100024910310860284630BD00009A
:1046C000003C024023016745AB89EFCD30B502467F
:1046D0000C460925FFF777FE0546092D17D19B48A3
:1046E000006820F440709949086008460068086036
:1046F0000846006840F0010008601470FFF763FE90
:1047000005469248006820F001009049086028465C
:1047100030BD8E48001D006800F0010028B18C48B3
:104720008A49083908608B48086070478748001D2F
:10473000006840F001008549091D0860704730B5E8
:1047400002460C460925FFF73EFE0546092D10D10D
:104750003CB17E48801D008890437C49891D0880BB
:1047600007E07A48801D008891B208437749891D87
:10477000088030BD30B502460C460925FFF723FE00
:104780000546092D10D13CB170480A30008890438D
:104790006E490A31088007E06C480A30008891B2FF
:1047A00008436A490A31088030BDFF21674AD21D9B
:1047B000127802F07F0140EA0102644BDB1D1A709F
:1047C000704730B502460C460925FFF7FCFD05464B
:1047D000092D10D144B15D48801D008891B2084375
:1047E0005A49891D088006E05848801D008890437A
:1047F0005649891D088030BD30B502460C46092552
:10480000FFF7E1FD0546092D10D144B14F480A30AC
:10481000008891B208434D490A31088006E04B48B0
:104820000A300088904349490A31088030BD10B5EC
:1048300002460924FFF7C7FD0446092C02D143486C
:10484000401D027010BDF0B504460D46FF26092735
:10485000FFF7B9FD0746092F0BD13C48001D007832
:1048600000F00F0645EA0600104320433749091DB2
:104870000870F0BD3549091D097821F01001334A4F
:10488000121D1170114609780143117070472F49AC
:10489000091D097821F00C012C4A121D11701146D6
:1048A000097801431170704700B509222748001D9F
:1048B000007840F002002549091D0870FFF783FDCC
:1048C0000246104600BD2148001D0068C0F3471095
:1048D00070471E48801D008870471C480A300088B9
:1048E00070471A48801D0088704718480A300088B1
:1048F000704700201549491D0978AA2901D00120D7
:1049000000E0002070471148001D007800F00C0006
:10491000704729B10D4A126802430C4B1A6004E03B
:104920000A4A12688243094B1A6070470146002008
:10493000064A121F12680A400AB1012000E0002056
:1049400070470249091F086070470000103C024090
:104950003B2A19087F6E5D4C10B501210802FEF755
:1049600098F800214FF48070FEF793F810BD30B531
:104970000246002000235068F84C20400D790C6856
:1049800044EA0524204350609068F54C2040D1E96A
:1049900003542C438D682C434D7944EA450420434D
:1049A0009060D06A20F470000C7D641EE4B2234352
:1049B00040EA0350D06230BD0021016001714171B5
:1049C0008160C16001610121017570470021E54AE4
:1049D0001168E54A1140D0E900231A4383681A435D
:1049E000C3681A431143E14AC2F804137047002117
:1049F000016041608160C160704721B1826842F00E
:104A00000102826003E0826822F001028260704746
:104A10000A4600214168D64B194011434160704756
:104A20004162826270470A460021416821F01F01FD
:104A300011434160704738B1CA49096841F4000127
:104A4000CA4AC2F8041306E0C649096821F4000105
:104A5000C64AC2F80413704738B1C249096841F424
:104A60008001C24AC2F8041306E0BE49096821F475
:104A70008001BE4AC2F804137047F0B504460D46E3
:104A800000200021092D11DDE068A5F10A0606EBE2
:104A90004607072606FA07F18843A5F10A0606EB42
:104AA000460603FA06F10843E0600CE0206905EBD6
:104AB0004507072606FA07F1884305EB450603FA82
:104AC00006F108432061072A0FDA606B561E06EBD9
:104AD00086071F2606FA07F18843561E06EB860650
:104AE00005FA06F10843606322E00D2A0FDA206B15
:104AF000D61F06EB86071F2606FA07F18843D61F46
:104B000006EB860605FA06F10843206310E0E06A2A
:104B1000A2F10D0606EB86071F2606FA07F1884369
:104B2000A2F10D0606EB860605FA06F10843E062DF
:104B3000F0BD816841F080418160704701460020EE
:104B40008A6802F080420AB1012000E0002070472C
:104B500021B1826842F48062826003E0826822F4BC
:104B600080628260704721B1826842F002028260F6
:104B700003E0826822F002028260704710B50A46A4
:104B800000210023416821F46041531E41EA433172
:104B9000416010BD21B1426842F40062426003E00E
:104BA000426822F40062426070470146C86C80B2DD
:104BB00070476C48001D0068704721B1826842F45C
:104BC0008072826003E0826822F4807282607047A3
:104BD00021B1826842F40072826003E0826822F4AC
:104BE00000728260704738B15E49096841F4005133
:104BF0005E4AC2F8041306E05A49096821F40051DC
:104C00005A4AC2F804137047F0B50446154600200E
:104C100000220026092911DDE068A1F10A0707EB4F
:104C2000470C072707FA0CF29043A1F10A0707EB9C
:104C3000470703FA07F21043E0600CE0206901EB3C
:104C4000410C072707FA0CF2904301EB410703FAE6
:104C500007F210432061A06BC0F30156EF1C06F170
:104C6000010CA7EB0C0707EB870C1F2707FA0CF2C8
:104C70009043EF1C06F1010CA7EB0C0707EB87072D
:104C800001FA07F21043A063F0BD10B50A460021F7
:104C90000023816B21F44011531E41EA03518163CB
:104CA00010BD08B5002300930090009B0B440093B7
:104CB000009B1A6008BD0A460021816821F470211A
:104CC0001143816070470A460021816821F4401138
:104CD000114381607047816841F4800181607047B1
:104CE000014600208A6802F480020AB1012000E037
:104CF0000020704721B1426842F48062426003E0C4
:104D0000426822F480624260704721B1426842F4F6
:104D10008052426003E0426822F480524260704751
:104D200008B5024600200090009201F12800009B87
:104D3000184400900098006880B208BD10B50B467A
:104D40000021D9B2012404FA01F11AB144680C43DC
:104D5000446002E044688C43446010BDFFFEFFFCE9
:104D6000FDF7FFC004230140E030FCFF00200140BC
:104D7000FFFD3FFF0246002013680B400BB10120EE
:104D800000E000207047CA430260704770B50246D9
:104D90000020002300240B12556801268E4005EAEE
:104DA000060415681D4015B10CB1012000E000207B
:104DB00070BD00220A12D3430360704710B5044649
:104DC0006FF00400FDF774FAE11704EB5171C1F3C1
:104DD000C701394A11701046007800EB4001C1EB61
:104DE000C0104FF6FF7101EAC0003449088010BDC1
:104DF0000146314A12784A434FF0E0235A610022BB
:104E00009A611A46126942F001021A6100BF4FF01E
:104E1000E022106900F001021AB100F48032002A89
:104E2000F5D04FF0E022126922F001024FF0E023AA
:104E30001A6100229A6170470146204A12884A434B
:104E40004FF0E0235A6100229A611A46126942F03B
:104E500001021A6100BF4FF0E022106900F0010268
:104E60001AB100F48032002AF5D04FF0E022126926
:104E700022F001024FF0E0231A6100229A6170478C
:104E800070B504464FF4077094FBF0F0C6B24FF4CF
:104E9000077094FBF0F100FB114085B205E04FF480
:104EA0000770FFF7C9FF701EC6B2002EF7D115B10B
:104EB0002846FFF7C1FF70BDBC000020BE000020E7
:104EC0004A0A52020243F74B1A6070470146072311
:104ED00023EA01021202F34B1B1D18684FF6FF0371
:104EE0001840F14B18431043EE4B1B1D18607047E0
:104EF0002DE9F0410746884614461D462846FFF72F
:104F0000E5FFC5F1040007FA00F60F20284100EA8A
:104F10000800064306F00F06E21704EBD2625211B6
:104F2000920002F1E022D2F800212146E31704EBBF
:104F3000D3635B11A4EB431C012303FA0CF31A4364
:104F40002046E31704EBD3635B119B0003F1E023DE
:104F5000C3F80021D548005D40EA0610D349085542
:104F6000D0488030006840F47000CE49803108603D
:104F7000BDE8F081F0B503460846CD1701EB957505
:104F8000AD10A1EB8505AD062C0EC948006840F4B4
:104F90008040C74D2860CD1701EB9575AE10C54D0B
:104FA00055F826500F26A640B5430846CE1701EB0C
:104FB0009676B710BF4E46F82750CD1701EB957582
:104FC000AE10BC4D55F8265003FA04F63543CE1703
:104FD00001EB9676B710B74E46F82750B6480068F2
:104FE00001258D402843B44D286002F0010040B1F6
:104FF000B1480C30006801258D402843AE4D0C357A
:10500000286002F0020040B1AB480830006801257A
:105010008D402843A84D08352860F0BD30B5CC1030
:1050200000F1200353F824304C07E50E0F24AC4068
:10503000A343CD1000F1200444F82530CC1000F13A
:10504000200353F824304C07E40E02FA04F42343FF
:10505000CD1000F1200444F8253030BD2DE9F04793
:105060000C46DDE90867002100258C4600BF60E0A2
:105070004FF0010808FA01F504EA050CAC4557D1D8
:10508000D0F800804FEA410A4FF0030909FA0AF903
:1050900028EA0908C0F80080D0F800804FEA4109EA
:1050A00002FA09F948EA0908C0F80080012A01D08B
:1050B000022A27D1D0F808804FEA410A4FF00309AD
:1050C00009FA0AF928EA0908C0F80880D0F8088027
:1050D0004FEA410906FA09F948EA0908C0F80880C8
:1050E000D0F804904FF0010808FA01F829EA0809FD
:1050F000C0F80490D0F8048003FA01F948EA0908DE
:10510000C0F80480D0F80C804FEA410A4FF0030940
:1051100009FA0AF928EA0908C0F80C80D0F80C80CE
:105120004FEA410907FA09F948EA0908C0F80C8072
:10513000491C10299CD3BDE8F08730BF704772B678
:10514000704762B6704700B556480830006840F0B6
:1051500004005449083108605548001F006840F0B9
:1051600080505349091F08605448406840F48070DB
:10517000524948600846006840F00400086008464C
:10518000006840F002000860FFF7D7FF00BD464806
:10519000001D4449091D08607047F0B504460D46DE
:1051A00000210020424E443E366846F48036404F8F
:1051B000443F3E6001E04E1CB1B23D4E443E366875
:1051C00006F400361EB941F6FF76B142F3DB41F634
:1051D000FF76B14201D1012063E0354E361F3668BB
:1051E00046F08056324F3F1F3E60344E366846F4DC
:1051F0004046324F3E602E4E3C3E366846F41446E2
:105200002B4F3C3F3E602A4E443E366826F0807667
:10521000274F443F3E6045EA84160127C7EB5207FB
:1052200046EA074646EA036646F48006204F403FBA
:105230003E603E1F366846F080763F1F3E6000BFEE
:105240001B4E443E366806F00076002EF8D01C4E09
:10525000366846F480761A4F3E603E46366846F41D
:1052600000763E603E46366846F480663E603E46C6
:10527000366846F005063E600D4E3C3E366826F028
:1052800003060B4F3C3F3E603E46366846F0020642
:105290003E6000BF064E3C3E366806F00C06082E07
:1052A000F8D1F0BD08ED00E00000FA0500E400E0F0
:1052B0004438024008380140003C01400070004082
:1052C000003C0240F0B504460D4616461F46144801
:1052D000006840F0010012490860002010490831C0
:1052E00008600F4800680F4908400D4908600E48E3
:1052F000091D0860081F006820F48020091F08604D
:10530000002007490C3108603B46324629462046BA
:10531000FFF743FF00210846FFF7D2FDF0BD000074
:1053200000380240FFFFF6FE1030002400BF704737
:1053300000BFFE4A128802F04002002AF9D0C2B231
:10534000FA4B1B1D1A80704770B505460024F8A063
:1053500006F0BEFB00BF05E0F848015DF8A006F0CE
:10536000B7FB641CAC42F7DBF7A006F0B1FB70BDE5
:1053700070B503460C46002115E041F20400C05A06
:10538000401CC0F30B054FF48050C058A84201D117
:10539000084670BD665C41F20400C0581E5441F2DC
:1053A0000400C550491C9142E7D31046F1E730B5DF
:1053B00003460C46002117E04FF48050C558001DED
:1053C000C058854201D1084630BD4FF48050C058C6
:1053D000185C60544FF48050C05A401CC0F30B0559
:1053E0004FF48050C550491C9142E5D31046EBE77D
:1053F0002DE9F0438FB004460D4616461F46DDE901
:105400001689D248844204D901218805FDF792FA11
:1054100003E001214805FDF78DFA2046FDF754FE13
:1054200000BF2046FDF779FF0028FAD100950196CC
:1054300002970390CDF8109005904FF4806006908D
:1054400000200790089009904FF480300A900020C7
:105450000B9003200C9000200D900E9000224146EE
:105460002046FDF734FF01212046FDF73CFF694649
:105470002046FDF7CBFE0FB0BDE8F0832DE9F041EB
:1054800090B004460D4617461E46DDF85880AF48DA
:10549000844204D901218805FDF74CFA03E001217B
:1054A0004805FDF747FA2046FDF70EFE00BF2046EF
:1054B000FDF733FF0028FAD1019502970396049077
:1054C000CDF8148006904FF480600790002008907B
:1054D00009900A904FF480300B9000200C9003202C
:1054E0000D9000200E900F9001A92046FDF78EFE32
:1054F00010B0BDE8F0812DE9F04190B004460D46B2
:1055000017461E46DDF858809048844204D9012190
:105510008805FDF70FFA03E001214805FDF70AFAB7
:105520002046FDF7D1FD00BF2046FDF7F6FE00281E
:10553000FAD101950297039640200490CDF814808B
:10554000002006904FF4806007900020089009909A
:105550000A904FF480300B9000200C9003200D90A7
:1055600000200E900F9001A92046FDF74FFE10B0CD
:10557000BDE8F08110B58AB0044601210846FDF768
:10558000D9F901211020FDF72FFA072209217048CF
:10559000FCF7BDFF07220A216D48FCF7B8FF4FF466
:1055A000C060089002208DF824008DF825000020AE
:1055B0008DF8260001208DF8270008A96448FCF723
:1055C0001BFF04940020ADF81400ADF81600ADF8F0
:1055D0001800ADF81C000820ADF81A0004A95D48B9
:1055E000FDF7ADFB40215B48FDF71BFD44208DF826
:1055F0000C0001208DF80D008DF80E008DF80F00C5
:1056000003A8FCF708FE46208DF80C0001208DF859
:105610000D0002208DF80E0001208DF80F0003A868
:10562000FCF7F9FD25204C494C4B4A4A121DCDE9A7
:105630000010510645488830FFF7DAFEDC20484B61
:10564000444A121D510600904048B830FFF753FFFE
:10565000012240213F48FDF7A9FC012280213D485D
:10566000FDF7A4FC0122102138488830FDF795FE93
:10567000012210213548B830FDF78FFE0121334853
:105680008830FDF7FDFD01213248FDF7E2FB0AB04D
:1056900010BD10B588B0044601210846FDF74AF94F
:1056A00001214804FDF78FF9072202212848FCF761
:1056B0002EFF072203212648FCF729FF0C20069025
:1056C00002208DF81C008DF81D0000208DF81E00B2
:1056D00001208DF81F0006A91D48FCF78DFE0294DD
:1056E0000020ADF80C00ADF80E00ADF81000ADF8DC
:1056F00014000C20ADF8120002A91A48FDF71FFB98
:1057000040211848FDF78DFC012240F22551154833
:10571000FDF755FC26208DF8040000208DF80500CB
:1057200001208DF806008DF807001DE0004C0040B8
:105730006C6F6E675072696E743A0000C40000208E
:1057400025303278200000000D0A0000006402407D
:105750000000024000100140FC140020D41400207E
:105760002C0D00200044004001A8FCF754FD11203E
:105770008DF8040000208DF8050002208DF8060049
:1057800001208DF8070001A8FCF745FD4FF480606B
:10579000F64BF74A41040090F648FFF7ACFE0122B1
:1057A0008021F348001FFDF701FC01221021F14880
:1057B000FDF7F3FD0121EE48001FFDF74AFB08B09D
:1057C00010BD10B540F22551E948001FFDF732FC2D
:1057D00000287DD0E648001FFDF76AFBC4B2E6480A
:1057E0000078592817D1E548E54909884454E44828
:1057F0000088401CE2490880084600880D2809D12D
:10580000002008804620DC4908700021D848001F8D
:10581000FDF71FFB10BDD8480078542837D1D74872
:10582000D74909884454D6480088401CD449088088
:105830000846008808280ED1D048C0790002D14916
:105840000880CE48807909880843CE4908800846F8
:1058500000880A300880CA480088072816DDC84832
:105860000088C8490988884210D10020C4490880AE
:105870005020C14908704FF48062C049C24806F008
:10588000E4FA0021BA48001FFDF7E3FAC2E7BA487C
:105890000078582857D1B948B94909884454B848BC
:1058A0000088401CB649088008460088801EB3491D
:1058B000085CA12846D1B2480088401E085CFC283C
:1058C00040D1AF480288B148FFF752FDAC4800E034
:1058D0005AE00288A949AE48FFF74AFD5520A6497B
:1058E00008700020A6490880A4480079012829D121
:1058F000A248007A032802D1A649087013E09F4805
:10590000007A022802D1A34908700CE09B48007A73
:10591000012802D19F49087005E09848007A10B923
:1059200000209C4908709548C079012801D19A4906
:1059300008709248C07910B900209749087001207A
:105940009649087066E78E48008850B901208A4958
:1059500008708B480088401C89490880874804707B
:105960003BE087480088012837D18448447000789C
:10597000DD280AD181484078772806D159207E4910
:10598000087002207E49088027E07C480078CF28F4
:105990000AD17A4800781A2806D15420764908702E
:1059A00002207749088018E074480078CF280AD18F
:1059B000724840781A2806D158206F490870022092
:1059C0006F49088009E06D4840786C4908700120F3
:1059D0006B49088000206849087000BF1AE710B5BD
:1059E0006FA006F075F875497548FDF71DFD744800
:1059F000FDF789FC30B973A006F06AF802207849F7
:105A0000087005E077A006F063F80120744908707B
:105A100010BD10B500216A483030FDF731FC7849DF
:105A200067483030FDF700FDDC2165483030FDF778
:105A300048FC01207349087010BD10B500214D4885
:105A4000FDF71EFC70494B48FDF7EEFC4FF48061FA
:105A50004848FDF736FC01206C49087010BD10B5B0
:105A600088B0044601210846FCF764FF0121880440
:105A7000FCF7A9FF07220A216548FCF748FD072229
:105A80000B216348FCF743FD4FF440600690022071
:105A90008DF81C008DF81D0000208DF81E000120DF
:105AA0008DF81F0006A95A48FCF7A6FC02940020B6
:105AB000ADF80C00ADF80E00ADF81000ADF8140014
:105AC0000C20ADF8120002A95248FDF738F9402128
:105AD0005048FDF7A6FA012240F225514D48FDF746
